{
  "contractName": "Tracking",
  "abi": [
    {
      "inputs": [],
      "payable": false,
      "stateMutability": "nonpayable",
      "type": "constructor"
    },
    {
      "constant": true,
      "inputs": [],
      "name": "admin",
      "outputs": [
        {
          "internalType": "address",
          "name": "",
          "type": "address"
        }
      ],
      "payable": false,
      "stateMutability": "view",
      "type": "function"
    },
    {
      "constant": true,
      "inputs": [
        {
          "internalType": "uint256",
          "name": "",
          "type": "uint256"
        }
      ],
      "name": "transactions",
      "outputs": [
        {
          "internalType": "uint256",
          "name": "time",
          "type": "uint256"
        },
        {
          "internalType": "uint256",
          "name": "numberTransaction",
          "type": "uint256"
        },
        {
          "internalType": "uint256",
          "name": "numberVaccine",
          "type": "uint256"
        },
        {
          "internalType": "uint256",
          "name": "amountVaccine",
          "type": "uint256"
        },
        {
          "internalType": "address",
          "name": "sender",
          "type": "address"
        },
        {
          "internalType": "address",
          "name": "receiver",
          "type": "address"
        },
        {
          "internalType": "bool",
          "name": "start",
          "type": "bool"
        },
        {
          "internalType": "bool",
          "name": "end",
          "type": "bool"
        }
      ],
      "payable": false,
      "stateMutability": "view",
      "type": "function"
    },
    {
      "constant": true,
      "inputs": [
        {
          "internalType": "address",
          "name": "",
          "type": "address"
        }
      ],
      "name": "users",
      "outputs": [
        {
          "internalType": "string",
          "name": "name",
          "type": "string"
        },
        {
          "internalType": "enum Tracking.roles",
          "name": "role",
          "type": "uint8"
        }
      ],
      "payable": false,
      "stateMutability": "view",
      "type": "function"
    },
    {
      "constant": true,
      "inputs": [
        {
          "internalType": "uint256",
          "name": "",
          "type": "uint256"
        }
      ],
      "name": "vaccines",
      "outputs": [
        {
          "internalType": "uint256",
          "name": "number",
          "type": "uint256"
        },
        {
          "internalType": "string",
          "name": "name",
          "type": "string"
        },
        {
          "internalType": "string",
          "name": "immune",
          "type": "string"
        }
      ],
      "payable": false,
      "stateMutability": "view",
      "type": "function"
    },
    {
      "constant": false,
      "inputs": [
        {
          "internalType": "uint256",
          "name": "_number",
          "type": "uint256"
        },
        {
          "internalType": "string",
          "name": "_name",
          "type": "string"
        },
        {
          "internalType": "string",
          "name": "_immune",
          "type": "string"
        }
      ],
      "name": "addVaccine",
      "outputs": [],
      "payable": false,
      "stateMutability": "nonpayable",
      "type": "function"
    },
    {
      "constant": false,
      "inputs": [
        {
          "internalType": "address",
          "name": "_user",
          "type": "address"
        },
        {
          "internalType": "string",
          "name": "_userName",
          "type": "string"
        },
        {
          "internalType": "uint256",
          "name": "_userRole",
          "type": "uint256"
        }
      ],
      "name": "addUser",
      "outputs": [],
      "payable": false,
      "stateMutability": "nonpayable",
      "type": "function"
    },
    {
      "constant": false,
      "inputs": [
        {
          "internalType": "uint256",
          "name": "_numberVaccine",
          "type": "uint256"
        },
        {
          "internalType": "uint256",
          "name": "_amountVaccine",
          "type": "uint256"
        }
      ],
      "name": "startTransaction",
      "outputs": [],
      "payable": false,
      "stateMutability": "nonpayable",
      "type": "function"
    },
    {
      "constant": false,
      "inputs": [
        {
          "internalType": "uint256",
          "name": "_numberVaccine",
          "type": "uint256"
        },
        {
          "internalType": "uint256",
          "name": "_amountVaccine",
          "type": "uint256"
        }
      ],
      "name": "goTransfer",
      "outputs": [],
      "payable": false,
      "stateMutability": "nonpayable",
      "type": "function"
    },
    {
      "constant": false,
      "inputs": [
        {
          "internalType": "uint256",
          "name": "_numberVaccine",
          "type": "uint256"
        },
        {
          "internalType": "uint256",
          "name": "_amountVaccine",
          "type": "uint256"
        }
      ],
      "name": "finishTransaction",
      "outputs": [],
      "payable": false,
      "stateMutability": "nonpayable",
      "type": "function"
    }
  ],
  "bytecode": "0x60806040526000805560006001556000600260006101000a81548173ffffffffffffffffffffffffffffffffffffffff021916908373ffffffffffffffffffffffffffffffffffffffff1602179055503480156200005c57600080fd5b5033600360006101000a81548173ffffffffffffffffffffffffffffffffffffffff021916908373ffffffffffffffffffffffffffffffffffffffff1602179055506040518060400160405280600581526020017f41646d696e00000000000000000000000000000000000000000000000000000081525060046000600360009054906101000a900473ffffffffffffffffffffffffffffffffffffffff1673ffffffffffffffffffffffffffffffffffffffff1673ffffffffffffffffffffffffffffffffffffffff16815260200190815260200160002060000190805190602001906200014d929190620004d5565b50600060046000600360009054906101000a900473ffffffffffffffffffffffffffffffffffffffff1673ffffffffffffffffffffffffffffffffffffffff1673ffffffffffffffffffffffffffffffffffffffff16815260200190815260200160002060010160006101000a81548160ff02191690836004811115620001d057fe5b021790555060066040518060600160405280600181526020016040518060400160405280600981526020017f436f726f6e61566163000000000000000000000000000000000000000000000081525081526020016040518060400160405280600681526020017f436f726f6e61000000000000000000000000000000000000000000000000000081525081525090806001815401808255809150509060018203906000526020600020906003020160009091929091909150600082015181600001556020820151816001019080519060200190620002b09291906200055c565b506040820151816002019080519060200190620002cf9291906200055c565b5050505060066040518060600160405280600281526020016040518060400160405280600281526020017f4d5200000000000000000000000000000000000000000000000000000000000081525081526020016040518060400160405280600681526020017f43616d70616b000000000000000000000000000000000000000000000000000081525081525090806001815401808255809150509060018203906000526020600020906003020160009091929091909150600082015181600001556020820151816001019080519060200190620003ae9291906200055c565b506040820151816002019080519060200190620003cd9291906200055c565b5050505060066040518060600160405280600381526020016040518060400160405280600781526020017f566172697661780000000000000000000000000000000000000000000000000081525081526020016040518060400160405280600881526020017f5665726973656c6100000000000000000000000000000000000000000000000081525081525090806001815401808255809150509060018203906000526020600020906003020160009091929091909150600082015181600001556020820151816001019080519060200190620004ac9291906200055c565b506040820151816002019080519060200190620004cb9291906200055c565b505050506200060b565b828054600181600116156101000203166002900490600052602060002090601f016020900481019282601f106200051857805160ff191683800117855562000549565b8280016001018555821562000549579182015b82811115620005485782518255916020019190600101906200052b565b5b509050620005589190620005e3565b5090565b828054600181600116156101000203166002900490600052602060002090601f016020900481019282601f106200059f57805160ff1916838001178555620005d0565b82800160010185558215620005d0579182015b82811115620005cf578251825591602001919060010190620005b2565b5b509050620005df9190620005e3565b5090565b6200060891905b8082111562000604576000816000905550600101620005ea565b5090565b90565b611749806200061b6000396000f3fe608060405234801561001057600080fd5b50600436106100935760003560e01c8063bb26350a11610066578063bb26350a1461038f578063cf8d138e146104eb578063f0384fb614610523578063f4b125e814610608578063f851a4401461064057610093565b80632b42f96a14610098578063300e88bd146100d05780639ace38c2146101ea578063a87430ba146102bd575b600080fd5b6100ce600480360360408110156100ae57600080fd5b81019080803590602001909291908035906020019092919050505061068a565b005b6100fc600480360360208110156100e657600080fd5b81019080803590602001909291905050506108ff565b604051808481526020018060200180602001838103835285818151815260200191508051906020019080838360005b8381101561014657808201518184015260208101905061012b565b50505050905090810190601f1680156101735780820380516001836020036101000a031916815260200191505b50838103825284818151815260200191508051906020019080838360005b838110156101ac578082015181840152602081019050610191565b50505050905090810190601f1680156101d95780820380516001836020036101000a031916815260200191505b509550505050505060405180910390f35b6102166004803603602081101561020057600080fd5b8101908080359060200190929190505050610a66565b604051808981526020018881526020018781526020018681526020018573ffffffffffffffffffffffffffffffffffffffff1673ffffffffffffffffffffffffffffffffffffffff1681526020018473ffffffffffffffffffffffffffffffffffffffff1673ffffffffffffffffffffffffffffffffffffffff16815260200183151515158152602001821515151581526020019850505050505050505060405180910390f35b6102ff600480360360208110156102d357600080fd5b81019080803573ffffffffffffffffffffffffffffffffffffffff169060200190929190505050610b08565b604051808060200183600481111561031357fe5b60ff168152602001828103825284818151815260200191508051906020019080838360005b83811015610353578082015181840152602081019050610338565b50505050905090810190601f1680156103805780820380516001836020036101000a031916815260200191505b50935050505060405180910390f35b6104e9600480360360608110156103a557600080fd5b8101908080359060200190929190803590602001906401000000008111156103cc57600080fd5b8201836020820111156103de57600080fd5b8035906020019184600183028401116401000000008311171561040057600080fd5b91908080601f016020809104026020016040519081016040528093929190818152602001838380828437600081840152601f19601f8201169050808301925050505050505091929192908035906020019064010000000081111561046357600080fd5b82018360208201111561047557600080fd5b8035906020019184600183028401116401000000008311171561049757600080fd5b91908080601f016020809104026020016040519081016040528093929190818152602001838380828437600081840152601f19601f820116905080830192505050505050509192919290505050610bd1565b005b6105216004803603604081101561050157600080fd5b810190808035906020019092919080359060200190929190505050610d0b565b005b6106066004803603606081101561053957600080fd5b81019080803573ffffffffffffffffffffffffffffffffffffffff1690602001909291908035906020019064010000000081111561057657600080fd5b82018360208201111561058857600080fd5b803590602001918460018302840111640100000000831117156105aa57600080fd5b91908080601f016020809104026020016040519081016040528093929190818152602001838380828437600081840152601f19601f82011690508083019250505050505050919291929080359060200190929190505050610f93565b005b61063e6004803603604081101561061e57600080fd5b8101908080359060200190929190803590602001909291905050506112f2565b005b610648611578565b604051808273ffffffffffffffffffffffffffffffffffffffff1673ffffffffffffffffffffffffffffffffffffffff16815260200191505060405180910390f35b6000600460003373ffffffffffffffffffffffffffffffffffffffff1673ffffffffffffffffffffffffffffffffffffffff16815260200190815260200160002090506004808111156106d957fe5b8160010160009054906101000a900460ff1660048111156106f657fe5b1461074c576040517f08c379a000000000000000000000000000000000000000000000000000000000815260040180806020018281038252602f8152602001806116c4602f913960400191505060405180910390fd5b60008081548092919060010191905055506040518061010001604052804281526020016001548152602001848152602001838152602001600260009054906101000a900473ffffffffffffffffffffffffffffffffffffffff1673ffffffffffffffffffffffffffffffffffffffff1681526020013373ffffffffffffffffffffffffffffffffffffffff1681526020016001151581526020016001151581525060056000805481526020019081526020016000206000820151816000015560208201518160010155604082015181600201556060820151816003015560808201518160040160006101000a81548173ffffffffffffffffffffffffffffffffffffffff021916908373ffffffffffffffffffffffffffffffffffffffff16021790555060a08201518160050160006101000a81548173ffffffffffffffffffffffffffffffffffffffff021916908373ffffffffffffffffffffffffffffffffffffffff16021790555060c08201518160050160146101000a81548160ff02191690831515021790555060e08201518160050160156101000a81548160ff021916908315150217905550905050505050565b6006818154811061090c57fe5b9060005260206000209060030201600091509050806000015490806001018054600181600116156101000203166002900480601f0160208091040260200160405190810160405280929190818152602001828054600181600116156101000203166002900480156109be5780601f10610993576101008083540402835291602001916109be565b820191906000526020600020905b8154815290600101906020018083116109a157829003601f168201915b505050505090806002018054600181600116156101000203166002900480601f016020809104026020016040519081016040528092919081815260200182805460018160011615610100020316600290048015610a5c5780601f10610a3157610100808354040283529160200191610a5c565b820191906000526020600020905b815481529060010190602001808311610a3f57829003601f168201915b5050505050905083565b60056020528060005260406000206000915090508060000154908060010154908060020154908060030154908060040160009054906101000a900473ffffffffffffffffffffffffffffffffffffffff16908060050160009054906101000a900473ffffffffffffffffffffffffffffffffffffffff16908060050160149054906101000a900460ff16908060050160159054906101000a900460ff16905088565b6004602052806000526040600020600091509050806000018054600181600116156101000203166002900480601f016020809104026020016040519081016040528092919081815260200182805460018160011615610100020316600290048015610bb45780601f10610b8957610100808354040283529160200191610bb4565b820191906000526020600020905b815481529060010190602001808311610b9757829003601f168201915b5050505050908060010160009054906101000a900460ff16905082565b600360009054906101000a900473ffffffffffffffffffffffffffffffffffffffff1673ffffffffffffffffffffffffffffffffffffffff163373ffffffffffffffffffffffffffffffffffffffff1614610c77576040517f08c379a00000000000000000000000000000000000000000000000000000000081526004018080602001828103825260228152602001806116f36022913960400191505060405180910390fd5b600660405180606001604052808581526020018481526020018381525090806001815401808255809150509060018203906000526020600020906003020160009091929091909150600082015181600001556020820151816001019080519060200190610ce592919061159e565b506040820151816002019080519060200190610d0292919061159e565b50505050505050565b6000600460003373ffffffffffffffffffffffffffffffffffffffff1673ffffffffffffffffffffffffffffffffffffffff168152602001908152602001600020905060016004811115610d5b57fe5b8160010160009054906101000a900460ff166004811115610d7857fe5b14610dce576040517f08c379a000000000000000000000000000000000000000000000000000000000815260040180806020018281038252602f8152602001806116c4602f913960400191505060405180910390fd5b600080815480929190600101919050555060016000815480929190600101919050555060405180610100016040528042815260200160015481526020018481526020018381526020013373ffffffffffffffffffffffffffffffffffffffff168152602001600260009054906101000a900473ffffffffffffffffffffffffffffffffffffffff1673ffffffffffffffffffffffffffffffffffffffff1681526020016001151581526020016000151581525060056000805481526020019081526020016000206000820151816000015560208201518160010155604082015181600201556060820151816003015560808201518160040160006101000a81548173ffffffffffffffffffffffffffffffffffffffff021916908373ffffffffffffffffffffffffffffffffffffffff16021790555060a08201518160050160006101000a81548173ffffffffffffffffffffffffffffffffffffffff021916908373ffffffffffffffffffffffffffffffffffffffff16021790555060c08201518160050160146101000a81548160ff02191690831515021790555060e08201518160050160156101000a81548160ff021916908315150217905550905050505050565b600360009054906101000a900473ffffffffffffffffffffffffffffffffffffffff1673ffffffffffffffffffffffffffffffffffffffff163373ffffffffffffffffffffffffffffffffffffffff1614611039576040517f08c379a00000000000000000000000000000000000000000000000000000000081526004018080602001828103825260228152602001806116f36022913960400191505060405180910390fd5b60018114806110485750600281145b806110535750600381145b8061105e5750600481145b6110d0576040517f08c379a00000000000000000000000000000000000000000000000000000000081526004018080602001828103825260138152602001807f526f6c65206e6f7420617661696c61626c652e0000000000000000000000000081525060200191505060405180910390fd5b81600460008573ffffffffffffffffffffffffffffffffffffffff1673ffffffffffffffffffffffffffffffffffffffff168152602001908152602001600020600001908051906020019061112692919061161e565b506001811415611199576001600460008573ffffffffffffffffffffffffffffffffffffffff1673ffffffffffffffffffffffffffffffffffffffff16815260200190815260200160002060010160006101000a81548160ff0219169083600481111561118f57fe5b02179055506112ed565b600281141561120b576002600460008573ffffffffffffffffffffffffffffffffffffffff1673ffffffffffffffffffffffffffffffffffffffff16815260200190815260200160002060010160006101000a81548160ff0219169083600481111561120157fe5b02179055506112ec565b600381141561127d576003600460008573ffffffffffffffffffffffffffffffffffffffff1673ffffffffffffffffffffffffffffffffffffffff16815260200190815260200160002060010160006101000a81548160ff0219169083600481111561127357fe5b02179055506112eb565b60048114156112ea5760048060008573ffffffffffffffffffffffffffffffffffffffff1673ffffffffffffffffffffffffffffffffffffffff16815260200190815260200160002060010160006101000a81548160ff021916908360048111156112e457fe5b02179055505b5b5b5b505050565b6000600460003373ffffffffffffffffffffffffffffffffffffffff1673ffffffffffffffffffffffffffffffffffffffff16815260200190815260200160002090506002600481111561134257fe5b8160010160009054906101000a900460ff16600481111561135f57fe5b148061139257506003600481111561137357fe5b8160010160009054906101000a900460ff16600481111561139057fe5b145b6113e7576040517f08c379a000000000000000000000000000000000000000000000000000000000815260040180806020018281038252602f8152602001806116c4602f913960400191505060405180910390fd5b600080815480929190600101919050555060405180610100016040528042815260200160015481526020018481526020018381526020013373ffffffffffffffffffffffffffffffffffffffff1681526020013373ffffffffffffffffffffffffffffffffffffffff1681526020016001151581526020016000151581525060056000805481526020019081526020016000206000820151816000015560208201518160010155604082015181600201556060820151816003015560808201518160040160006101000a81548173ffffffffffffffffffffffffffffffffffffffff021916908373ffffffffffffffffffffffffffffffffffffffff16021790555060a08201518160050160006101000a81548173ffffffffffffffffffffffffffffffffffffffff021916908373ffffffffffffffffffffffffffffffffffffffff16021790555060c08201518160050160146101000a81548160ff02191690831515021790555060e08201518160050160156101000a81548160ff021916908315150217905550905050505050565b600360009054906101000a900473ffffffffffffffffffffffffffffffffffffffff1681565b828054600181600116156101000203166002900490600052602060002090601f016020900481019282601f106115df57805160ff191683800117855561160d565b8280016001018555821561160d579182015b8281111561160c5782518255916020019190600101906115f1565b5b50905061161a919061169e565b5090565b828054600181600116156101000203166002900490600052602060002090601f016020900481019282601f1061165f57805160ff191683800117855561168d565b8280016001018555821561168d579182015b8281111561168c578251825591602001919060010190611671565b5b50905061169a919061169e565b5090565b6116c091905b808211156116bc5760008160009055506001016116a4565b5090565b9056fe446f206e6f7420686176652074686520726967687420746f20696e6974696174652061207472616e73616374696f6e4f6e6c792061646d696e2063616e206769766520616363657373207269676874732ea265627a7a723158201a806ff2f6f2904684ba88960f293c6f793fac46cf8828689042a25de0d52fc164736f6c63430005100032",
  "source": "pragma solidity >=0.5.0 <0.9.0;\n\ncontract Tracking {\n    // uint _numberBankTransaction = 0;\n    uint _Transaction = 0;\n    uint _numberTransaction = 0;\n    address none = 0x0000000000000000000000000000000000000000;\n    \n    enum roles {\n        Admin,\n        Producer,\n        Distributor,\n        Docter,\n        Patien\n    }\n    \n    struct Vaccine {\n        uint number;\n        string name;\n        string immune;\n    }\n    \n    struct User {\n        string name;\n        roles role;\n    }\n    \n    struct Transaction {\n        uint256 time; \n        uint numberTransaction;\n        uint numberVaccine;\n        uint amountVaccine;\n        address sender;\n        address receiver;\n        bool start;\n        bool end;\n    }\n\n    address public admin;\n    \n    mapping(address => User) public users;\n    \n    mapping(uint256 => Transaction) public transactions;\n    \n    Vaccine[] public vaccines;\n    \n    constructor() public {\n        admin = msg.sender;\n        users[admin].name = 'Admin';\n        users[admin].role = roles.Admin;\n        vaccines.push(Vaccine(1,\"CoronaVac\",\"Corona\"));\n        vaccines.push(Vaccine(2,\"MR\",\"Campak\"));\n        vaccines.push(Vaccine(3,\"Varivax\",\"Verisela\"));\n    }\n    \n    function addVaccine(uint _number, string memory _name, string memory _immune) public {\n        require(msg.sender == admin,\n            \"Only admin can give access rights.\"\n        );\n        vaccines.push(Vaccine(_number,_name,_immune));\n    }\n    \n    function addUser(address _user,string memory _userName, uint _userRole) public {\n        require(msg.sender == admin,\n            \"Only admin can give access rights.\"\n        );\n        require(_userRole == 1 || _userRole == 2 || _userRole == 3 || _userRole == 4, \n            \"Role not available.\"\n        );\n        users[_user].name = _userName;\n        if (_userRole == 1) {\n            users[_user].role = roles.Producer;\n        } else if (_userRole == 2) {\n            users[_user].role = roles.Distributor;\n        } else if (_userRole == 3) {\n            users[_user].role = roles.Docter;\n        } else if (_userRole == 4) {\n            users[_user].role = roles.Patien;\n        }\n    }\n\n    function startTransaction(uint _numberVaccine, uint _amountVaccine) public {\n        User storage sender = users[msg.sender];\n        require(sender.role == roles.Producer , \"Do not have the right to initiate a transaction\");\n        _Transaction ++;\n        _numberTransaction ++;\n        transactions[_Transaction] = Transaction(block.timestamp,_numberTransaction,_numberVaccine,_amountVaccine,msg.sender,none,true,false);\n    }\n    \n    function goTransfer(uint _numberVaccine, uint _amountVaccine) public {\n        User storage sender = users[msg.sender];\n        require(sender.role == roles.Distributor || sender.role == roles.Docter, \"Do not have the right to initiate a transaction\");\n        _Transaction ++;\n        transactions[_Transaction] = Transaction(block.timestamp,_numberTransaction,_numberVaccine,_amountVaccine,msg.sender,msg.sender,true,false);\n    }\n    \n    function finishTransaction(uint _numberVaccine, uint _amountVaccine) public {\n        User storage sender = users[msg.sender];\n        require(sender.role == roles.Patien , \"Do not have the right to initiate a transaction\");\n        _Transaction ++;\n        transactions[_Transaction] = Transaction(block.timestamp,_numberTransaction,_numberVaccine,_amountVaccine,none,msg.sender,true,true);\n    }\n    \n}\n",
  "sourcePath": "/Users/dev/Documents/Github/uxe/src/contracts/Tracking.sol",
  "compiler": {
    "name": "solc",
    "version": "0.5.16+commit.9c3226ce.Emscripten.clang"
  },
  "schemaVersion": "3.4.3",
  "updatedAt": "2021-10-02T04:51:52.771Z",
  "networkType": "ethereum",
  "devdoc": {
    "methods": {}
  },
  "userdoc": {
    "methods": {}
  }
}