{
  "contractName": "Tracking",
  "abi": [
    {
      "inputs": [],
      "payable": false,
      "stateMutability": "nonpayable",
      "type": "constructor"
    },
    {
      "constant": true,
      "inputs": [],
      "name": "_Transaction",
      "outputs": [
        {
          "internalType": "uint256",
          "name": "",
          "type": "uint256"
        }
      ],
      "payable": false,
      "stateMutability": "view",
      "type": "function"
    },
    {
      "constant": true,
      "inputs": [],
      "name": "_Vaccine",
      "outputs": [
        {
          "internalType": "uint256",
          "name": "",
          "type": "uint256"
        }
      ],
      "payable": false,
      "stateMutability": "view",
      "type": "function"
    },
    {
      "constant": true,
      "inputs": [],
      "name": "_numberTransaction",
      "outputs": [
        {
          "internalType": "uint256",
          "name": "",
          "type": "uint256"
        }
      ],
      "payable": false,
      "stateMutability": "view",
      "type": "function"
    },
    {
      "constant": true,
      "inputs": [],
      "name": "admin",
      "outputs": [
        {
          "internalType": "address",
          "name": "",
          "type": "address"
        }
      ],
      "payable": false,
      "stateMutability": "view",
      "type": "function"
    },
    {
      "constant": true,
      "inputs": [
        {
          "internalType": "uint256",
          "name": "",
          "type": "uint256"
        }
      ],
      "name": "transactions",
      "outputs": [
        {
          "internalType": "uint256",
          "name": "time",
          "type": "uint256"
        },
        {
          "internalType": "uint256",
          "name": "numberTransaction",
          "type": "uint256"
        },
        {
          "internalType": "uint256",
          "name": "numberVaccine",
          "type": "uint256"
        },
        {
          "internalType": "uint256",
          "name": "amountVaccine",
          "type": "uint256"
        },
        {
          "internalType": "address",
          "name": "sender",
          "type": "address"
        },
        {
          "internalType": "address",
          "name": "receiver",
          "type": "address"
        },
        {
          "internalType": "bool",
          "name": "start",
          "type": "bool"
        },
        {
          "internalType": "bool",
          "name": "end",
          "type": "bool"
        }
      ],
      "payable": false,
      "stateMutability": "view",
      "type": "function"
    },
    {
      "constant": true,
      "inputs": [
        {
          "internalType": "address",
          "name": "",
          "type": "address"
        }
      ],
      "name": "users",
      "outputs": [
        {
          "internalType": "string",
          "name": "name",
          "type": "string"
        },
        {
          "internalType": "enum Tracking.roles",
          "name": "role",
          "type": "uint8"
        }
      ],
      "payable": false,
      "stateMutability": "view",
      "type": "function"
    },
    {
      "constant": true,
      "inputs": [
        {
          "internalType": "uint256",
          "name": "",
          "type": "uint256"
        }
      ],
      "name": "vaccines",
      "outputs": [
        {
          "internalType": "uint256",
          "name": "number",
          "type": "uint256"
        },
        {
          "internalType": "string",
          "name": "name",
          "type": "string"
        },
        {
          "internalType": "string",
          "name": "immune",
          "type": "string"
        }
      ],
      "payable": false,
      "stateMutability": "view",
      "type": "function"
    },
    {
      "constant": false,
      "inputs": [
        {
          "internalType": "uint256",
          "name": "_number",
          "type": "uint256"
        },
        {
          "internalType": "string",
          "name": "_name",
          "type": "string"
        },
        {
          "internalType": "string",
          "name": "_immune",
          "type": "string"
        }
      ],
      "name": "addVaccine",
      "outputs": [],
      "payable": false,
      "stateMutability": "nonpayable",
      "type": "function"
    },
    {
      "constant": false,
      "inputs": [
        {
          "internalType": "address",
          "name": "_user",
          "type": "address"
        },
        {
          "internalType": "string",
          "name": "_userName",
          "type": "string"
        },
        {
          "internalType": "uint256",
          "name": "_userRole",
          "type": "uint256"
        }
      ],
      "name": "addUser",
      "outputs": [],
      "payable": false,
      "stateMutability": "nonpayable",
      "type": "function"
    },
    {
      "constant": false,
      "inputs": [
        {
          "internalType": "uint256",
          "name": "_numberVaccine",
          "type": "uint256"
        },
        {
          "internalType": "uint256",
          "name": "_amountVaccine",
          "type": "uint256"
        }
      ],
      "name": "startTransaction",
      "outputs": [],
      "payable": false,
      "stateMutability": "nonpayable",
      "type": "function"
    },
    {
      "constant": false,
      "inputs": [
        {
          "internalType": "uint256",
          "name": "_numberVaccine",
          "type": "uint256"
        },
        {
          "internalType": "uint256",
          "name": "_amountVaccine",
          "type": "uint256"
        }
      ],
      "name": "goTransfer",
      "outputs": [],
      "payable": false,
      "stateMutability": "nonpayable",
      "type": "function"
    },
    {
      "constant": false,
      "inputs": [
        {
          "internalType": "uint256",
          "name": "_numberVaccine",
          "type": "uint256"
        },
        {
          "internalType": "uint256",
          "name": "_amountVaccine",
          "type": "uint256"
        }
      ],
      "name": "finishTransaction",
      "outputs": [],
      "payable": false,
      "stateMutability": "nonpayable",
      "type": "function"
    }
  ],
  "bytecode": "0x608060405260008055600060015560006002556000600360006101000a81548173ffffffffffffffffffffffffffffffffffffffff021916908373ffffffffffffffffffffffffffffffffffffffff1602179055503480156200006157600080fd5b5033600460006101000a81548173ffffffffffffffffffffffffffffffffffffffff021916908373ffffffffffffffffffffffffffffffffffffffff1602179055506040518060400160405280600581526020017f41646d696e00000000000000000000000000000000000000000000000000000081525060056000600460009054906101000a900473ffffffffffffffffffffffffffffffffffffffff1673ffffffffffffffffffffffffffffffffffffffff1673ffffffffffffffffffffffffffffffffffffffff168152602001908152602001600020600001908051906020019062000152929190620004c8565b50600060056000600460009054906101000a900473ffffffffffffffffffffffffffffffffffffffff1673ffffffffffffffffffffffffffffffffffffffff1673ffffffffffffffffffffffffffffffffffffffff16815260200190815260200160002060010160006101000a81548160ff02191690836004811115620001d557fe5b02179055506040518060600160405280600181526020016040518060400160405280600281526020017f4d5200000000000000000000000000000000000000000000000000000000000081525081526020016040518060400160405280600681526020017f43616d70616b00000000000000000000000000000000000000000000000000008152508152506007600060025481526020019081526020016000206000820151816000015560208201518160010190805190602001906200029d9291906200054f565b506040820151816002019080519060200190620002bc9291906200054f565b509050506002600081548092919060010191905055506040518060600160405280600281526020016040518060400160405280600781526020017f566172697661780000000000000000000000000000000000000000000000000081525081526020016040518060400160405280600881526020017f5665726973656c61000000000000000000000000000000000000000000000000815250815250600760006002548152602001908152602001600020600082015181600001556020820151816001019080519060200190620003959291906200054f565b506040820151816002019080519060200190620003b49291906200054f565b509050506002600081548092919060010191905055506040518060600160405280600381526020016040518060400160405280600981526020017f436f726f6e61566163000000000000000000000000000000000000000000000081525081526020016040518060400160405280600681526020017f436f726f6e6100000000000000000000000000000000000000000000000000008152508152506007600060025481526020019081526020016000206000820151816000015560208201518160010190805190602001906200048d9291906200054f565b506040820151816002019080519060200190620004ac9291906200054f565b50905050600260008154809291906001019190505550620005fe565b828054600181600116156101000203166002900490600052602060002090601f016020900481019282601f106200050b57805160ff19168380011785556200053c565b828001600101855582156200053c579182015b828111156200053b5782518255916020019190600101906200051e565b5b5090506200054b9190620005d6565b5090565b828054600181600116156101000203166002900490600052602060002090601f016020900481019282601f106200059257805160ff1916838001178555620005c3565b82800160010185558215620005c3579182015b82811115620005c2578251825591602001919060010190620005a5565b5b509050620005d29190620005d6565b5090565b620005fb91905b80821115620005f7576000816000905550600101620005dd565b5090565b90565b6117c4806200060e6000396000f3fe608060405234801561001057600080fd5b50600436106100b45760003560e01c8063a87430ba11610071578063a87430ba14610338578063bb26350a1461040a578063cf8d138e14610566578063f0384fb61461059e578063f4b125e814610683578063f851a440146106bb576100b4565b806303936467146100b95780632b42f96a146100d7578063300e88bd1461010f578063847d214b1461022957806399cf1986146102475780639ace38c214610265575b600080fd5b6100c1610705565b6040518082815260200191505060405180910390f35b61010d600480360360408110156100ed57600080fd5b81019080803590602001909291908035906020019092919050505061070b565b005b61013b6004803603602081101561012557600080fd5b8101908080359060200190929190505050610980565b604051808481526020018060200180602001838103835285818151815260200191508051906020019080838360005b8381101561018557808201518184015260208101905061016a565b50505050905090810190601f1680156101b25780820380516001836020036101000a031916815260200191505b50838103825284818151815260200191508051906020019080838360005b838110156101eb5780820151818401526020810190506101d0565b50505050905090810190601f1680156102185780820380516001836020036101000a031916815260200191505b509550505050505060405180910390f35b610231610ada565b6040518082815260200191505060405180910390f35b61024f610ae0565b6040518082815260200191505060405180910390f35b6102916004803603602081101561027b57600080fd5b8101908080359060200190929190505050610ae6565b604051808981526020018881526020018781526020018681526020018573ffffffffffffffffffffffffffffffffffffffff1673ffffffffffffffffffffffffffffffffffffffff1681526020018473ffffffffffffffffffffffffffffffffffffffff1673ffffffffffffffffffffffffffffffffffffffff16815260200183151515158152602001821515151581526020019850505050505050505060405180910390f35b61037a6004803603602081101561034e57600080fd5b81019080803573ffffffffffffffffffffffffffffffffffffffff169060200190929190505050610b88565b604051808060200183600481111561038e57fe5b60ff168152602001828103825284818151815260200191508051906020019080838360005b838110156103ce5780820151818401526020810190506103b3565b50505050905090810190601f1680156103fb5780820380516001836020036101000a031916815260200191505b50935050505060405180910390f35b6105646004803603606081101561042057600080fd5b81019080803590602001909291908035906020019064010000000081111561044757600080fd5b82018360208201111561045957600080fd5b8035906020019184600183028401116401000000008311171561047b57600080fd5b91908080601f016020809104026020016040519081016040528093929190818152602001838380828437600081840152601f19601f820116905080830192505050505050509192919290803590602001906401000000008111156104de57600080fd5b8201836020820111156104f057600080fd5b8035906020019184600183028401116401000000008311171561051257600080fd5b91908080601f016020809104026020016040519081016040528093929190818152602001838380828437600081840152601f19601f820116905080830192505050505050509192919290505050610c51565b005b61059c6004803603604081101561057c57600080fd5b810190808035906020019092919080359060200190929190505050610d85565b005b610681600480360360608110156105b457600080fd5b81019080803573ffffffffffffffffffffffffffffffffffffffff169060200190929190803590602001906401000000008111156105f157600080fd5b82018360208201111561060357600080fd5b8035906020019184600183028401116401000000008311171561062557600080fd5b91908080601f016020809104026020016040519081016040528093929190818152602001838380828437600081840152601f19601f8201169050808301925050505050505091929192908035906020019092919050505061100d565b005b6106b96004803603604081101561069957600080fd5b81019080803590602001909291908035906020019092919050505061136d565b005b6106c36115f3565b604051808273ffffffffffffffffffffffffffffffffffffffff1673ffffffffffffffffffffffffffffffffffffffff16815260200191505060405180910390f35b60025481565b6000600560003373ffffffffffffffffffffffffffffffffffffffff1673ffffffffffffffffffffffffffffffffffffffff168152602001908152602001600020905060048081111561075a57fe5b8160010160009054906101000a900460ff16600481111561077757fe5b146107cd576040517f08c379a000000000000000000000000000000000000000000000000000000000815260040180806020018281038252602f81526020018061173f602f913960400191505060405180910390fd5b60008081548092919060010191905055506040518061010001604052804281526020016001548152602001848152602001838152602001600360009054906101000a900473ffffffffffffffffffffffffffffffffffffffff1673ffffffffffffffffffffffffffffffffffffffff1681526020013373ffffffffffffffffffffffffffffffffffffffff1681526020016001151581526020016001151581525060066000805481526020019081526020016000206000820151816000015560208201518160010155604082015181600201556060820151816003015560808201518160040160006101000a81548173ffffffffffffffffffffffffffffffffffffffff021916908373ffffffffffffffffffffffffffffffffffffffff16021790555060a08201518160050160006101000a81548173ffffffffffffffffffffffffffffffffffffffff021916908373ffffffffffffffffffffffffffffffffffffffff16021790555060c08201518160050160146101000a81548160ff02191690831515021790555060e08201518160050160156101000a81548160ff021916908315150217905550905050505050565b6007602052806000526040600020600091509050806000015490806001018054600181600116156101000203166002900480601f016020809104026020016040519081016040528092919081815260200182805460018160011615610100020316600290048015610a325780601f10610a0757610100808354040283529160200191610a32565b820191906000526020600020905b815481529060010190602001808311610a1557829003601f168201915b505050505090806002018054600181600116156101000203166002900480601f016020809104026020016040519081016040528092919081815260200182805460018160011615610100020316600290048015610ad05780601f10610aa557610100808354040283529160200191610ad0565b820191906000526020600020905b815481529060010190602001808311610ab357829003601f168201915b5050505050905083565b60015481565b60005481565b60066020528060005260406000206000915090508060000154908060010154908060020154908060030154908060040160009054906101000a900473ffffffffffffffffffffffffffffffffffffffff16908060050160009054906101000a900473ffffffffffffffffffffffffffffffffffffffff16908060050160149054906101000a900460ff16908060050160159054906101000a900460ff16905088565b6005602052806000526040600020600091509050806000018054600181600116156101000203166002900480601f016020809104026020016040519081016040528092919081815260200182805460018160011615610100020316600290048015610c345780601f10610c0957610100808354040283529160200191610c34565b820191906000526020600020905b815481529060010190602001808311610c1757829003601f168201915b5050505050908060010160009054906101000a900460ff16905082565b600460009054906101000a900473ffffffffffffffffffffffffffffffffffffffff1673ffffffffffffffffffffffffffffffffffffffff163373ffffffffffffffffffffffffffffffffffffffff1614610cf7576040517f08c379a000000000000000000000000000000000000000000000000000000000815260040180806020018281038252602281526020018061176e6022913960400191505060405180910390fd5b604051806060016040528084815260200183815260200182815250600760006002548152602001908152602001600020600082015181600001556020820151816001019080519060200190610d4d929190611619565b506040820151816002019080519060200190610d6a929190611619565b50905050600260008154809291906001019190505550505050565b6000600560003373ffffffffffffffffffffffffffffffffffffffff1673ffffffffffffffffffffffffffffffffffffffff168152602001908152602001600020905060016004811115610dd557fe5b8160010160009054906101000a900460ff166004811115610df257fe5b14610e48576040517f08c379a000000000000000000000000000000000000000000000000000000000815260040180806020018281038252602f81526020018061173f602f913960400191505060405180910390fd5b600080815480929190600101919050555060016000815480929190600101919050555060405180610100016040528042815260200160015481526020018481526020018381526020013373ffffffffffffffffffffffffffffffffffffffff168152602001600360009054906101000a900473ffffffffffffffffffffffffffffffffffffffff1673ffffffffffffffffffffffffffffffffffffffff1681526020016001151581526020016000151581525060066000805481526020019081526020016000206000820151816000015560208201518160010155604082015181600201556060820151816003015560808201518160040160006101000a81548173ffffffffffffffffffffffffffffffffffffffff021916908373ffffffffffffffffffffffffffffffffffffffff16021790555060a08201518160050160006101000a81548173ffffffffffffffffffffffffffffffffffffffff021916908373ffffffffffffffffffffffffffffffffffffffff16021790555060c08201518160050160146101000a81548160ff02191690831515021790555060e08201518160050160156101000a81548160ff021916908315150217905550905050505050565b600460009054906101000a900473ffffffffffffffffffffffffffffffffffffffff1673ffffffffffffffffffffffffffffffffffffffff163373ffffffffffffffffffffffffffffffffffffffff16146110b3576040517f08c379a000000000000000000000000000000000000000000000000000000000815260040180806020018281038252602281526020018061176e6022913960400191505060405180910390fd5b60018114806110c25750600281145b806110cd5750600381145b806110d85750600481145b61114a576040517f08c379a00000000000000000000000000000000000000000000000000000000081526004018080602001828103825260138152602001807f526f6c65206e6f7420617661696c61626c652e0000000000000000000000000081525060200191505060405180910390fd5b81600560008573ffffffffffffffffffffffffffffffffffffffff1673ffffffffffffffffffffffffffffffffffffffff16815260200190815260200160002060000190805190602001906111a0929190611699565b506001811415611213576001600560008573ffffffffffffffffffffffffffffffffffffffff1673ffffffffffffffffffffffffffffffffffffffff16815260200190815260200160002060010160006101000a81548160ff0219169083600481111561120957fe5b0217905550611368565b6002811415611285576002600560008573ffffffffffffffffffffffffffffffffffffffff1673ffffffffffffffffffffffffffffffffffffffff16815260200190815260200160002060010160006101000a81548160ff0219169083600481111561127b57fe5b0217905550611367565b60038114156112f7576003600560008573ffffffffffffffffffffffffffffffffffffffff1673ffffffffffffffffffffffffffffffffffffffff16815260200190815260200160002060010160006101000a81548160ff021916908360048111156112ed57fe5b0217905550611366565b6004811415611365576004600560008573ffffffffffffffffffffffffffffffffffffffff1673ffffffffffffffffffffffffffffffffffffffff16815260200190815260200160002060010160006101000a81548160ff0219169083600481111561135f57fe5b02179055505b5b5b5b505050565b6000600560003373ffffffffffffffffffffffffffffffffffffffff1673ffffffffffffffffffffffffffffffffffffffff1681526020019081526020016000209050600260048111156113bd57fe5b8160010160009054906101000a900460ff1660048111156113da57fe5b148061140d5750600360048111156113ee57fe5b8160010160009054906101000a900460ff16600481111561140b57fe5b145b611462576040517f08c379a000000000000000000000000000000000000000000000000000000000815260040180806020018281038252602f81526020018061173f602f913960400191505060405180910390fd5b600080815480929190600101919050555060405180610100016040528042815260200160015481526020018481526020018381526020013373ffffffffffffffffffffffffffffffffffffffff1681526020013373ffffffffffffffffffffffffffffffffffffffff1681526020016001151581526020016000151581525060066000805481526020019081526020016000206000820151816000015560208201518160010155604082015181600201556060820151816003015560808201518160040160006101000a81548173ffffffffffffffffffffffffffffffffffffffff021916908373ffffffffffffffffffffffffffffffffffffffff16021790555060a08201518160050160006101000a81548173ffffffffffffffffffffffffffffffffffffffff021916908373ffffffffffffffffffffffffffffffffffffffff16021790555060c08201518160050160146101000a81548160ff02191690831515021790555060e08201518160050160156101000a81548160ff021916908315150217905550905050505050565b600460009054906101000a900473ffffffffffffffffffffffffffffffffffffffff1681565b828054600181600116156101000203166002900490600052602060002090601f016020900481019282601f1061165a57805160ff1916838001178555611688565b82800160010185558215611688579182015b8281111561168757825182559160200191906001019061166c565b5b5090506116959190611719565b5090565b828054600181600116156101000203166002900490600052602060002090601f016020900481019282601f106116da57805160ff1916838001178555611708565b82800160010185558215611708579182015b828111156117075782518255916020019190600101906116ec565b5b5090506117159190611719565b5090565b61173b91905b8082111561173757600081600090555060010161171f565b5090565b9056fe446f206e6f7420686176652074686520726967687420746f20696e6974696174652061207472616e73616374696f6e4f6e6c792061646d696e2063616e206769766520616363657373207269676874732ea265627a7a72315820e7405a531aaa04cb1afe89411e3d350160c1d923c64d38d978c98864fc3b430664736f6c63430005100032",
  "source": "pragma solidity >=0.4.21 <0.6.0;\n\ncontract Tracking {\n    // uint _numberBankTransaction = 0;\n    uint public _Transaction = 0;\n    uint public _numberTransaction = 0;\n    uint public _Vaccine = 0;\n    address none = 0x0000000000000000000000000000000000000000;\n    \n    enum roles {\n        Admin,\n        Producer,\n        Distributor,\n        Docter,\n        Patien\n    }\n    \n    struct Vaccine {\n        uint number;\n        string name;\n        string immune;\n    }\n    \n    struct User {\n        string name;\n        roles role;\n    }\n    \n    struct Transaction {\n        uint256 time; \n        uint numberTransaction;\n        uint numberVaccine;\n        uint amountVaccine;\n        address sender;\n        address receiver;\n        bool start;\n        bool end;\n    }\n\n    address public admin;\n    \n    mapping(address => User) public users;\n    \n    mapping(uint256 => Transaction) public transactions;\n    \n    mapping(uint256 => Vaccine) public vaccines;\n    \n    constructor() public {\n        admin = msg.sender;\n        users[admin].name = 'Admin';\n        users[admin].role = roles.Admin;\n        vaccines[_Vaccine] = Vaccine(1,\"MR\",\"Campak\");\n        _Vaccine++;\n        vaccines[_Vaccine] = Vaccine(2,\"Varivax\",\"Verisela\");\n        _Vaccine++;\n        vaccines[_Vaccine] = Vaccine(3,\"CoronaVac\",\"Corona\");\n        _Vaccine++;\n    }\n    \n    function addVaccine(uint _number, string memory _name, string memory _immune) public {\n        require(msg.sender == admin,\n            \"Only admin can give access rights.\"\n        );\n        vaccines[_Vaccine] = Vaccine(_number,_name,_immune);\n        _Vaccine++;\n    }\n    \n    function addUser(address _user,string memory _userName, uint _userRole) public {\n        require(msg.sender == admin,\n            \"Only admin can give access rights.\"\n        );\n        require(_userRole == 1 || _userRole == 2 || _userRole == 3 || _userRole == 4, \n            \"Role not available.\"\n        );\n        users[_user].name = _userName;\n        if (_userRole == 1) {\n            users[_user].role = roles.Producer;\n        } else if (_userRole == 2) {\n            users[_user].role = roles.Distributor;\n        } else if (_userRole == 3) {\n            users[_user].role = roles.Docter;\n        } else if (_userRole == 4) {\n            users[_user].role = roles.Patien;\n        }\n    }\n\n    function startTransaction(uint _numberVaccine, uint _amountVaccine) public {\n        User storage sender = users[msg.sender];\n        require(sender.role == roles.Producer , \"Do not have the right to initiate a transaction\");\n        _Transaction ++;\n        _numberTransaction ++;\n        transactions[_Transaction] = Transaction(block.timestamp,_numberTransaction,_numberVaccine,_amountVaccine,msg.sender,none,true,false);\n    }\n    \n    function goTransfer(uint _numberVaccine, uint _amountVaccine) public {\n        User storage sender = users[msg.sender];\n        require(sender.role == roles.Distributor || sender.role == roles.Docter, \"Do not have the right to initiate a transaction\");\n        _Transaction ++;\n        transactions[_Transaction] = Transaction(block.timestamp,_numberTransaction,_numberVaccine,_amountVaccine,msg.sender,msg.sender,true,false);\n    }\n    \n    function finishTransaction(uint _numberVaccine, uint _amountVaccine) public {\n        User storage sender = users[msg.sender];\n        require(sender.role == roles.Patien , \"Do not have the right to initiate a transaction\");\n        _Transaction ++;\n        transactions[_Transaction] = Transaction(block.timestamp,_numberTransaction,_numberVaccine,_amountVaccine,none,msg.sender,true,true);\n    }\n    \n}\n",
  "sourcePath": "/Users/dev/Documents/Github/uxe/src/contracts/Tracking.sol",
  "compiler": {
    "name": "solc",
    "version": "0.5.16+commit.9c3226ce.Emscripten.clang"
  },
  "schemaVersion": "3.4.3",
  "updatedAt": "2021-11-01T17:56:11.632Z",
  "networkType": "ethereum",
  "devdoc": {
    "methods": {}
  },
  "userdoc": {
    "methods": {}
  }
}