{
  "contractName": "Tracking",
  "abi": [
    {
      "inputs": [],
      "payable": false,
      "stateMutability": "nonpayable",
      "type": "constructor"
    },
    {
      "constant": true,
      "inputs": [],
      "name": "_Transaction",
      "outputs": [
        {
          "internalType": "uint256",
          "name": "",
          "type": "uint256"
        }
      ],
      "payable": false,
      "stateMutability": "view",
      "type": "function"
    },
    {
      "constant": true,
      "inputs": [],
      "name": "_Vaccine",
      "outputs": [
        {
          "internalType": "uint256",
          "name": "",
          "type": "uint256"
        }
      ],
      "payable": false,
      "stateMutability": "view",
      "type": "function"
    },
    {
      "constant": true,
      "inputs": [],
      "name": "_numberTransaction",
      "outputs": [
        {
          "internalType": "uint256",
          "name": "",
          "type": "uint256"
        }
      ],
      "payable": false,
      "stateMutability": "view",
      "type": "function"
    },
    {
      "constant": true,
      "inputs": [],
      "name": "admin",
      "outputs": [
        {
          "internalType": "address",
          "name": "",
          "type": "address"
        }
      ],
      "payable": false,
      "stateMutability": "view",
      "type": "function"
    },
    {
      "constant": true,
      "inputs": [
        {
          "internalType": "uint256",
          "name": "",
          "type": "uint256"
        }
      ],
      "name": "transactions",
      "outputs": [
        {
          "internalType": "uint256",
          "name": "time",
          "type": "uint256"
        },
        {
          "internalType": "uint256",
          "name": "numberTransaction",
          "type": "uint256"
        },
        {
          "internalType": "uint256",
          "name": "numberVaccine",
          "type": "uint256"
        },
        {
          "internalType": "uint256",
          "name": "amountVaccine",
          "type": "uint256"
        },
        {
          "internalType": "string",
          "name": "sender",
          "type": "string"
        },
        {
          "internalType": "address",
          "name": "addrsender",
          "type": "address"
        },
        {
          "internalType": "string",
          "name": "rolesender",
          "type": "string"
        },
        {
          "internalType": "string",
          "name": "receiver",
          "type": "string"
        },
        {
          "internalType": "bool",
          "name": "start",
          "type": "bool"
        },
        {
          "internalType": "bool",
          "name": "end",
          "type": "bool"
        }
      ],
      "payable": false,
      "stateMutability": "view",
      "type": "function"
    },
    {
      "constant": true,
      "inputs": [
        {
          "internalType": "address",
          "name": "",
          "type": "address"
        }
      ],
      "name": "users",
      "outputs": [
        {
          "internalType": "string",
          "name": "name",
          "type": "string"
        },
        {
          "internalType": "enum Tracking.roles",
          "name": "role",
          "type": "uint8"
        }
      ],
      "payable": false,
      "stateMutability": "view",
      "type": "function"
    },
    {
      "constant": true,
      "inputs": [
        {
          "internalType": "uint256",
          "name": "",
          "type": "uint256"
        }
      ],
      "name": "vaccines",
      "outputs": [
        {
          "internalType": "uint256",
          "name": "number",
          "type": "uint256"
        },
        {
          "internalType": "string",
          "name": "name",
          "type": "string"
        },
        {
          "internalType": "string",
          "name": "immune",
          "type": "string"
        }
      ],
      "payable": false,
      "stateMutability": "view",
      "type": "function"
    },
    {
      "constant": false,
      "inputs": [
        {
          "internalType": "uint256",
          "name": "_number",
          "type": "uint256"
        },
        {
          "internalType": "string",
          "name": "_name",
          "type": "string"
        },
        {
          "internalType": "string",
          "name": "_immune",
          "type": "string"
        }
      ],
      "name": "addVaccine",
      "outputs": [],
      "payable": false,
      "stateMutability": "nonpayable",
      "type": "function"
    },
    {
      "constant": false,
      "inputs": [
        {
          "internalType": "address",
          "name": "_user",
          "type": "address"
        },
        {
          "internalType": "string",
          "name": "_userName",
          "type": "string"
        },
        {
          "internalType": "uint256",
          "name": "_userRole",
          "type": "uint256"
        }
      ],
      "name": "addUser",
      "outputs": [],
      "payable": false,
      "stateMutability": "nonpayable",
      "type": "function"
    },
    {
      "constant": false,
      "inputs": [
        {
          "internalType": "uint256",
          "name": "_numberVaccine",
          "type": "uint256"
        },
        {
          "internalType": "uint256",
          "name": "_amountVaccine",
          "type": "uint256"
        }
      ],
      "name": "startTransaction",
      "outputs": [],
      "payable": false,
      "stateMutability": "nonpayable",
      "type": "function"
    },
    {
      "constant": false,
      "inputs": [
        {
          "internalType": "uint256",
          "name": "_numberVaccine",
          "type": "uint256"
        },
        {
          "internalType": "uint256",
          "name": "_amountVaccine",
          "type": "uint256"
        }
      ],
      "name": "goTransfer",
      "outputs": [],
      "payable": false,
      "stateMutability": "nonpayable",
      "type": "function"
    },
    {
      "constant": false,
      "inputs": [
        {
          "internalType": "uint256",
          "name": "_numberVaccine",
          "type": "uint256"
        },
        {
          "internalType": "uint256",
          "name": "_amountVaccine",
          "type": "uint256"
        }
      ],
      "name": "finishTransaction",
      "outputs": [],
      "payable": false,
      "stateMutability": "nonpayable",
      "type": "function"
    },
    {
      "constant": true,
      "inputs": [
        {
          "internalType": "address",
          "name": "_address",
          "type": "address"
        }
      ],
      "name": "getName",
      "outputs": [
        {
          "internalType": "string",
          "name": "",
          "type": "string"
        }
      ],
      "payable": false,
      "stateMutability": "view",
      "type": "function"
    }
  ],
  "bytecode": "0x608060405260008055600060015560006002556040518060400160405280600181526020017f2d00000000000000000000000000000000000000000000000000000000000000815250600390805190602001906200005f929190620004d4565b503480156200006d57600080fd5b5033600460006101000a81548173ffffffffffffffffffffffffffffffffffffffff021916908373ffffffffffffffffffffffffffffffffffffffff1602179055506040518060400160405280600581526020017f41646d696e00000000000000000000000000000000000000000000000000000081525060056000600460009054906101000a900473ffffffffffffffffffffffffffffffffffffffff1673ffffffffffffffffffffffffffffffffffffffff1673ffffffffffffffffffffffffffffffffffffffff16815260200190815260200160002060000190805190602001906200015e929190620004d4565b50600060056000600460009054906101000a900473ffffffffffffffffffffffffffffffffffffffff1673ffffffffffffffffffffffffffffffffffffffff1673ffffffffffffffffffffffffffffffffffffffff16815260200190815260200160002060010160006101000a81548160ff02191690836004811115620001e157fe5b02179055506040518060600160405280600181526020016040518060400160405280600281526020017f4d5200000000000000000000000000000000000000000000000000000000000081525081526020016040518060400160405280600681526020017f43616d70616b0000000000000000000000000000000000000000000000000000815250815250600760006002548152602001908152602001600020600082015181600001556020820151816001019080519060200190620002a99291906200055b565b506040820151816002019080519060200190620002c89291906200055b565b509050506002600081548092919060010191905055506040518060600160405280600281526020016040518060400160405280600781526020017f566172697661780000000000000000000000000000000000000000000000000081525081526020016040518060400160405280600881526020017f5665726973656c61000000000000000000000000000000000000000000000000815250815250600760006002548152602001908152602001600020600082015181600001556020820151816001019080519060200190620003a19291906200055b565b506040820151816002019080519060200190620003c09291906200055b565b509050506002600081548092919060010191905055506040518060600160405280600381526020016040518060400160405280600981526020017f436f726f6e61566163000000000000000000000000000000000000000000000081525081526020016040518060400160405280600681526020017f436f726f6e610000000000000000000000000000000000000000000000000000815250815250600760006002548152602001908152602001600020600082015181600001556020820151816001019080519060200190620004999291906200055b565b506040820151816002019080519060200190620004b89291906200055b565b509050506002600081548092919060010191905055506200060a565b828054600181600116156101000203166002900490600052602060002090601f016020900481019282601f106200051757805160ff191683800117855562000548565b8280016001018555821562000548579182015b82811115620005475782518255916020019190600101906200052a565b5b509050620005579190620005e2565b5090565b828054600181600116156101000203166002900490600052602060002090601f016020900481019282601f106200059e57805160ff1916838001178555620005cf565b82800160010185558215620005cf579182015b82811115620005ce578251825591602001919060010190620005b1565b5b509050620005de9190620005e2565b5090565b6200060791905b8082111562000603576000816000905550600101620005e9565b5090565b90565b6120d0806200061a6000396000f3fe608060405234801561001057600080fd5b50600436106100cf5760003560e01c80639ace38c21161008c578063cf8d138e11610066578063cf8d138e1461074f578063f0384fb614610787578063f4b125e81461086c578063f851a440146108a4576100cf565b80639ace38c21461033d578063a87430ba14610521578063bb26350a146105f3576100cf565b806303936467146100d45780632b42f96a146100f2578063300e88bd1461012a5780635fd4b08a14610244578063847d214b1461030157806399cf19861461031f575b600080fd5b6100dc6108ee565b6040518082815260200191505060405180910390f35b6101286004803603604081101561010857600080fd5b8101908080359060200190929190803590602001909291905050506108f4565b005b6101566004803603602081101561014057600080fd5b8101908080359060200190929190505050610cba565b604051808481526020018060200180602001838103835285818151815260200191508051906020019080838360005b838110156101a0578082015181840152602081019050610185565b50505050905090810190601f1680156101cd5780820380516001836020036101000a031916815260200191505b50838103825284818151815260200191508051906020019080838360005b838110156102065780820151818401526020810190506101eb565b50505050905090810190601f1680156102335780820380516001836020036101000a031916815260200191505b509550505050505060405180910390f35b6102866004803603602081101561025a57600080fd5b81019080803573ffffffffffffffffffffffffffffffffffffffff169060200190929190505050610e14565b6040518080602001828103825283818151815260200191508051906020019080838360005b838110156102c65780820151818401526020810190506102ab565b50505050905090810190601f1680156102f35780820380516001836020036101000a031916815260200191505b509250505060405180910390f35b610309610ef8565b6040518082815260200191505060405180910390f35b610327610efe565b6040518082815260200191505060405180910390f35b6103696004803603602081101561035357600080fd5b8101908080359060200190929190505050610f04565b604051808b81526020018a8152602001898152602001888152602001806020018773ffffffffffffffffffffffffffffffffffffffff1673ffffffffffffffffffffffffffffffffffffffff1681526020018060200180602001861515151581526020018515151515815260200184810384528a818151815260200191508051906020019080838360005b8381101561040f5780820151818401526020810190506103f4565b50505050905090810190601f16801561043c5780820380516001836020036101000a031916815260200191505b50848103835288818151815260200191508051906020019080838360005b8381101561047557808201518184015260208101905061045a565b50505050905090810190601f1680156104a25780820380516001836020036101000a031916815260200191505b50848103825287818151815260200191508051906020019080838360005b838110156104db5780820151818401526020810190506104c0565b50505050905090810190601f1680156105085780820380516001836020036101000a031916815260200191505b509d505050505050505050505050505060405180910390f35b6105636004803603602081101561053757600080fd5b81019080803573ffffffffffffffffffffffffffffffffffffffff16906020019092919050505061115a565b604051808060200183600481111561057757fe5b60ff168152602001828103825284818151815260200191508051906020019080838360005b838110156105b757808201518184015260208101905061059c565b50505050905090810190601f1680156105e45780820380516001836020036101000a031916815260200191505b50935050505060405180910390f35b61074d6004803603606081101561060957600080fd5b81019080803590602001909291908035906020019064010000000081111561063057600080fd5b82018360208201111561064257600080fd5b8035906020019184600183028401116401000000008311171561066457600080fd5b91908080601f016020809104026020016040519081016040528093929190818152602001838380828437600081840152601f19601f820116905080830192505050505050509192919290803590602001906401000000008111156106c757600080fd5b8201836020820111156106d957600080fd5b803590602001918460018302840111640100000000831117156106fb57600080fd5b91908080601f016020809104026020016040519081016040528093929190818152602001838380828437600081840152601f19601f820116905080830192505050505050509192919290505050611223565b005b6107856004803603604081101561076557600080fd5b810190808035906020019092919080359060200190929190505050611357565b005b61086a6004803603606081101561079d57600080fd5b81019080803573ffffffffffffffffffffffffffffffffffffffff169060200190929190803590602001906401000000008111156107da57600080fd5b8201836020820111156107ec57600080fd5b8035906020019184600183028401116401000000008311171561080e57600080fd5b91908080601f016020809104026020016040519081016040528093929190818152602001838380828437600081840152601f19601f82011690508083019250505050505050919291929080359060200190929190505050611730565b005b6108a26004803603604081101561088257600080fd5b810190808035906020019092919080359060200190929190505050611a90565b005b6108ac611eff565b604051808273ffffffffffffffffffffffffffffffffffffffff1673ffffffffffffffffffffffffffffffffffffffff16815260200191505060405180910390f35b60025481565b6000600560003373ffffffffffffffffffffffffffffffffffffffff1673ffffffffffffffffffffffffffffffffffffffff168152602001908152602001600020905060048081111561094357fe5b8160010160009054906101000a900460ff16600481111561096057fe5b146109b6576040517f08c379a000000000000000000000000000000000000000000000000000000000815260040180806020018281038252602f81526020018061204b602f913960400191505060405180910390fd5b6000808154809291906001019190505550604051806101400160405280428152602001600154815260200184815260200183815260200160038054600181600116156101000203166002900480601f016020809104026020016040519081016040528092919081815260200182805460018160011615610100020316600290048015610a835780601f10610a5857610100808354040283529160200191610a83565b820191906000526020600020905b815481529060010190602001808311610a6657829003601f168201915b505050505081526020013373ffffffffffffffffffffffffffffffffffffffff1681526020016040518060400160405280600681526020017f50617469656e00000000000000000000000000000000000000000000000000008152508152602001826000018054600181600116156101000203166002900480601f016020809104026020016040519081016040528092919081815260200182805460018160011615610100020316600290048015610b7c5780601f10610b5157610100808354040283529160200191610b7c565b820191906000526020600020905b815481529060010190602001808311610b5f57829003601f168201915b50505050508152602001600115158152602001600115158152506006600080548152602001908152602001600020600082015181600001556020820151816001015560408201518160020155606082015181600301556080820151816004019080519060200190610bee929190611f25565b5060a08201518160050160006101000a81548173ffffffffffffffffffffffffffffffffffffffff021916908373ffffffffffffffffffffffffffffffffffffffff16021790555060c0820151816006019080519060200190610c52929190611f25565b5060e0820151816007019080519060200190610c6f929190611f25565b506101008201518160080160006101000a81548160ff0219169083151502179055506101208201518160080160016101000a81548160ff021916908315150217905550905050505050565b6007602052806000526040600020600091509050806000015490806001018054600181600116156101000203166002900480601f016020809104026020016040519081016040528092919081815260200182805460018160011615610100020316600290048015610d6c5780601f10610d4157610100808354040283529160200191610d6c565b820191906000526020600020905b815481529060010190602001808311610d4f57829003601f168201915b505050505090806002018054600181600116156101000203166002900480601f016020809104026020016040519081016040528092919081815260200182805460018160011615610100020316600290048015610e0a5780601f10610ddf57610100808354040283529160200191610e0a565b820191906000526020600020905b815481529060010190602001808311610ded57829003601f168201915b5050505050905083565b6060600560008373ffffffffffffffffffffffffffffffffffffffff1673ffffffffffffffffffffffffffffffffffffffff1681526020019081526020016000206000018054600181600116156101000203166002900480601f016020809104026020016040519081016040528092919081815260200182805460018160011615610100020316600290048015610eec5780601f10610ec157610100808354040283529160200191610eec565b820191906000526020600020905b815481529060010190602001808311610ecf57829003601f168201915b50505050509050919050565b60015481565b60005481565b6006602052806000526040600020600091509050806000015490806001015490806002015490806003015490806004018054600181600116156101000203166002900480601f016020809104026020016040519081016040528092919081815260200182805460018160011615610100020316600290048015610fc85780601f10610f9d57610100808354040283529160200191610fc8565b820191906000526020600020905b815481529060010190602001808311610fab57829003601f168201915b5050505050908060050160009054906101000a900473ffffffffffffffffffffffffffffffffffffffff1690806006018054600181600116156101000203166002900480601f01602080910402602001604051908101604052809291908181526020018280546001816001161561010002031660029004801561108c5780601f106110615761010080835404028352916020019161108c565b820191906000526020600020905b81548152906001019060200180831161106f57829003601f168201915b505050505090806007018054600181600116156101000203166002900480601f01602080910402602001604051908101604052809291908181526020018280546001816001161561010002031660029004801561112a5780601f106110ff5761010080835404028352916020019161112a565b820191906000526020600020905b81548152906001019060200180831161110d57829003601f168201915b5050505050908060080160009054906101000a900460ff16908060080160019054906101000a900460ff1690508a565b6005602052806000526040600020600091509050806000018054600181600116156101000203166002900480601f0160208091040260200160405190810160405280929190818152602001828054600181600116156101000203166002900480156112065780601f106111db57610100808354040283529160200191611206565b820191906000526020600020905b8154815290600101906020018083116111e957829003601f168201915b5050505050908060010160009054906101000a900460ff16905082565b600460009054906101000a900473ffffffffffffffffffffffffffffffffffffffff1673ffffffffffffffffffffffffffffffffffffffff163373ffffffffffffffffffffffffffffffffffffffff16146112c9576040517f08c379a000000000000000000000000000000000000000000000000000000000815260040180806020018281038252602281526020018061207a6022913960400191505060405180910390fd5b60405180606001604052808481526020018381526020018281525060076000600254815260200190815260200160002060008201518160000155602082015181600101908051906020019061131f929190611f25565b50604082015181600201908051906020019061133c929190611f25565b50905050600260008154809291906001019190505550505050565b6000600560003373ffffffffffffffffffffffffffffffffffffffff1673ffffffffffffffffffffffffffffffffffffffff1681526020019081526020016000209050600160048111156113a757fe5b8160010160009054906101000a900460ff1660048111156113c457fe5b1461141a576040517f08c379a000000000000000000000000000000000000000000000000000000000815260040180806020018281038252602f81526020018061204b602f913960400191505060405180910390fd5b60008081548092919060010191905055506001600081548092919060010191905055506040518061014001604052804281526020016001548152602001848152602001838152602001826000018054600181600116156101000203166002900480601f0160208091040260200160405190810160405280929190818152602001828054600181600116156101000203166002900480156114fb5780601f106114d0576101008083540402835291602001916114fb565b820191906000526020600020905b8154815290600101906020018083116114de57829003601f168201915b505050505081526020013373ffffffffffffffffffffffffffffffffffffffff1681526020016040518060400160405280600881526020017f50726f6475636572000000000000000000000000000000000000000000000000815250815260200160038054600181600116156101000203166002900480601f0160208091040260200160405190810160405280929190818152602001828054600181600116156101000203166002900480156115f25780601f106115c7576101008083540402835291602001916115f2565b820191906000526020600020905b8154815290600101906020018083116115d557829003601f168201915b50505050508152602001600115158152602001600015158152506006600080548152602001908152602001600020600082015181600001556020820151816001015560408201518160020155606082015181600301556080820151816004019080519060200190611664929190611f25565b5060a08201518160050160006101000a81548173ffffffffffffffffffffffffffffffffffffffff021916908373ffffffffffffffffffffffffffffffffffffffff16021790555060c08201518160060190805190602001906116c8929190611f25565b5060e08201518160070190805190602001906116e5929190611f25565b506101008201518160080160006101000a81548160ff0219169083151502179055506101208201518160080160016101000a81548160ff021916908315150217905550905050505050565b600460009054906101000a900473ffffffffffffffffffffffffffffffffffffffff1673ffffffffffffffffffffffffffffffffffffffff163373ffffffffffffffffffffffffffffffffffffffff16146117d6576040517f08c379a000000000000000000000000000000000000000000000000000000000815260040180806020018281038252602281526020018061207a6022913960400191505060405180910390fd5b60018114806117e55750600281145b806117f05750600381145b806117fb5750600481145b61186d576040517f08c379a00000000000000000000000000000000000000000000000000000000081526004018080602001828103825260138152602001807f526f6c65206e6f7420617661696c61626c652e0000000000000000000000000081525060200191505060405180910390fd5b81600560008573ffffffffffffffffffffffffffffffffffffffff1673ffffffffffffffffffffffffffffffffffffffff16815260200190815260200160002060000190805190602001906118c3929190611fa5565b506001811415611936576001600560008573ffffffffffffffffffffffffffffffffffffffff1673ffffffffffffffffffffffffffffffffffffffff16815260200190815260200160002060010160006101000a81548160ff0219169083600481111561192c57fe5b0217905550611a8b565b60028114156119a8576002600560008573ffffffffffffffffffffffffffffffffffffffff1673ffffffffffffffffffffffffffffffffffffffff16815260200190815260200160002060010160006101000a81548160ff0219169083600481111561199e57fe5b0217905550611a8a565b6003811415611a1a576003600560008573ffffffffffffffffffffffffffffffffffffffff1673ffffffffffffffffffffffffffffffffffffffff16815260200190815260200160002060010160006101000a81548160ff02191690836004811115611a1057fe5b0217905550611a89565b6004811415611a88576004600560008573ffffffffffffffffffffffffffffffffffffffff1673ffffffffffffffffffffffffffffffffffffffff16815260200190815260200160002060010160006101000a81548160ff02191690836004811115611a8257fe5b02179055505b5b5b5b505050565b6000600560003373ffffffffffffffffffffffffffffffffffffffff1673ffffffffffffffffffffffffffffffffffffffff168152602001908152602001600020905060026004811115611ae057fe5b8160010160009054906101000a900460ff166004811115611afd57fe5b1480611b30575060036004811115611b1157fe5b8160010160009054906101000a900460ff166004811115611b2e57fe5b145b611b85576040517f08c379a000000000000000000000000000000000000000000000000000000000815260040180806020018281038252602f81526020018061204b602f913960400191505060405180910390fd5b6000808154809291906001019190505550606060026004811115611ba557fe5b8260010160009054906101000a900460ff166004811115611bc257fe5b1415611c05576040518060400160405280600b81526020017f4469737472696275746f720000000000000000000000000000000000000000008152509050611c3e565b6040518060400160405280600a81526020017f56616363696e61746f720000000000000000000000000000000000000000000081525090505b6040518061014001604052804281526020016001548152602001858152602001848152602001836000018054600181600116156101000203166002900480601f016020809104026020016040519081016040528092919081815260200182805460018160011615610100020316600290048015611cfc5780601f10611cd157610100808354040283529160200191611cfc565b820191906000526020600020905b815481529060010190602001808311611cdf57829003601f168201915b505050505081526020013373ffffffffffffffffffffffffffffffffffffffff168152602001828152602001836000018054600181600116156101000203166002900480601f016020809104026020016040519081016040528092919081815260200182805460018160011615610100020316600290048015611dc05780601f10611d9557610100808354040283529160200191611dc0565b820191906000526020600020905b815481529060010190602001808311611da357829003601f168201915b50505050508152602001600115158152602001600015158152506006600080548152602001908152602001600020600082015181600001556020820151816001015560408201518160020155606082015181600301556080820151816004019080519060200190611e32929190611f25565b5060a08201518160050160006101000a81548173ffffffffffffffffffffffffffffffffffffffff021916908373ffffffffffffffffffffffffffffffffffffffff16021790555060c0820151816006019080519060200190611e96929190611f25565b5060e0820151816007019080519060200190611eb3929190611f25565b506101008201518160080160006101000a81548160ff0219169083151502179055506101208201518160080160016101000a81548160ff02191690831515021790555090505050505050565b600460009054906101000a900473ffffffffffffffffffffffffffffffffffffffff1681565b828054600181600116156101000203166002900490600052602060002090601f016020900481019282601f10611f6657805160ff1916838001178555611f94565b82800160010185558215611f94579182015b82811115611f93578251825591602001919060010190611f78565b5b509050611fa19190612025565b5090565b828054600181600116156101000203166002900490600052602060002090601f016020900481019282601f10611fe657805160ff1916838001178555612014565b82800160010185558215612014579182015b82811115612013578251825591602001919060010190611ff8565b5b5090506120219190612025565b5090565b61204791905b8082111561204357600081600090555060010161202b565b5090565b9056fe446f206e6f7420686176652074686520726967687420746f20696e6974696174652061207472616e73616374696f6e4f6e6c792061646d696e2063616e206769766520616363657373207269676874732ea265627a7a72315820ac2e98d3d2b3254834bfb119a91c2a5de86f315d2bfe860982688141e558f4ec64736f6c63430005100032",
  "source": "pragma solidity >=0.4.21 <0.6.0;\n\ncontract Tracking {\n    // uint _numberBankTransaction = 0;\n    uint public _Transaction = 0;\n    uint public _numberTransaction = 0;\n    uint public _Vaccine = 0;\n    string none = '-';\n    \n    enum roles {\n        Admin,\n        Producer,\n        Distributor,\n        Docter,\n        Patien\n    }\n    \n    struct Vaccine {\n        uint number;\n        string name;\n        string immune;\n    }\n    \n    struct User {\n        string name;\n        roles role;\n    }\n    \n    struct Transaction {\n        uint256 time; \n        uint numberTransaction;\n        uint numberVaccine;\n        uint amountVaccine;\n        string sender;\n        address addrsender;\n        string rolesender;\n        string receiver;\n        bool start;\n        bool end;\n    }\n\n    address public admin;\n    \n    mapping(address => User) public users;\n    \n    mapping(uint256 => Transaction) public transactions;\n    \n    mapping(uint256 => Vaccine) public vaccines;\n    \n    constructor() public {\n        admin = msg.sender;\n        users[admin].name = 'Admin';\n        users[admin].role = roles.Admin;\n        vaccines[_Vaccine] = Vaccine(1,\"MR\",\"Campak\");\n        _Vaccine++;\n        vaccines[_Vaccine] = Vaccine(2,\"Varivax\",\"Verisela\");\n        _Vaccine++;\n        vaccines[_Vaccine] = Vaccine(3,\"CoronaVac\",\"Corona\");\n        _Vaccine++;\n    }\n    \n    function addVaccine(uint _number, string memory _name, string memory _immune) public {\n        require(msg.sender == admin,\n            \"Only admin can give access rights.\"\n        );\n        vaccines[_Vaccine] = Vaccine(_number,_name,_immune);\n        _Vaccine++;\n    }\n    \n    function addUser(address _user,string memory _userName, uint _userRole) public {\n        require(msg.sender == admin,\n            \"Only admin can give access rights.\"\n        );\n        require(_userRole == 1 || _userRole == 2 || _userRole == 3 || _userRole == 4, \n            \"Role not available.\"\n        );\n        users[_user].name = _userName;\n        if (_userRole == 1) {\n            users[_user].role = roles.Producer;\n        } else if (_userRole == 2) {\n            users[_user].role = roles.Distributor;\n        } else if (_userRole == 3) {\n            users[_user].role = roles.Docter;\n        } else if (_userRole == 4) {\n            users[_user].role = roles.Patien;\n        }\n    }\n\n    function startTransaction(uint _numberVaccine, uint _amountVaccine) public {\n        User storage sender = users[msg.sender];\n        require(sender.role == roles.Producer , \"Do not have the right to initiate a transaction\");\n        _Transaction ++;\n        _numberTransaction ++;\n        transactions[_Transaction] = Transaction(block.timestamp,_numberTransaction,_numberVaccine,_amountVaccine,sender.name,msg.sender,'Producer',none,true,false);\n    }\n    \n    function goTransfer(uint _numberVaccine, uint _amountVaccine) public {\n        User storage sender = users[msg.sender];\n        require(sender.role == roles.Distributor || sender.role == roles.Docter, \"Do not have the right to initiate a transaction\");\n        _Transaction ++;\n        string memory userRole;\n        if(sender.role == roles.Distributor) {\n            userRole = 'Distributor';\n        } else {\n            userRole = 'Vaccinator';\n        }\n        transactions[_Transaction] = Transaction(block.timestamp,_numberTransaction,_numberVaccine,_amountVaccine,sender.name,msg.sender,userRole,sender.name,true,false);\n    }\n    \n    function finishTransaction(uint _numberVaccine, uint _amountVaccine) public {\n        User storage sender = users[msg.sender];\n        require(sender.role == roles.Patien , \"Do not have the right to initiate a transaction\");\n        _Transaction ++;\n        transactions[_Transaction] = Transaction(block.timestamp,_numberTransaction,_numberVaccine,_amountVaccine,none,msg.sender,'Patien',sender.name,true,true);\n    }\n\n    function getName(address _address) public view returns(string memory) {\n        return users[_address].name;\n    }\n    \n}\n",
  "sourcePath": "/Users/dev/Documents/Github/uxe/src/contracts/Tracking.sol",
  "compiler": {
    "name": "solc",
    "version": "0.5.16+commit.9c3226ce.Emscripten.clang"
  },
  "schemaVersion": "3.4.3",
  "updatedAt": "2022-01-30T08:29:55.023Z",
  "networkType": "ethereum",
  "devdoc": {
    "methods": {}
  },
  "userdoc": {
    "methods": {}
  }
}